:1000000009C021C020C0ADC01EC01DC01CC01BC087
:100010008BC019C011241FBECFE9CDBF10E0A0E6F0
:10002000B0E0E8EDF3E002C005900D92A837B1070B
:10003000D9F720E0A8E7B0E001C01D92A638B207CA
:10004000E1F7B2D0C7C1DCCF10928200909182005C
:100050008917E0F7089580917800909179009C01CC
:100060003695279580FF03C084EB382703C0211500
:100070003105D1F3C9019695879520FD02C00097FF
:1000800011F424EB92279093790080937800837089
:100090000895E82F862F18BAAE2FA370B0E0A059AC
:1000A000BF4F9C9197BBF0E0E859FF4FE081F0E033
:1000B000E05AFF4F208126BF30E03595279529BDB6
:1000C0009AE093BFC1DF13BE17BA8FE088BB0895D3
:1000D000CF93C0E067E08C2FDCDFCF5FC430D1F777
:1000E000CF910895CF93C3E067E08C2FD2DFC1504A
:1000F000D8F7CF910895F6DF609185008091840054
:10010000861760F4609580E090E057D1609183009D
:1001100081E090E052D1DCDFDBDFDADFF89480E1D0
:1001200081BD8FE081BDFFCF1F920F920FB60F925E
:1001300011248F939F93809182008F5F8093820020
:1001400003B600FE07C092B780918300880F89270D
:10015000809383009F918F910F900FBE0F901F90FF
:1001600018951F920F920FB60F9211248F939F93A1
:1001700098B380E1892788BB9F918F910F900FBE24
:100180000F901F901895CF93C82F65DF8150833053
:1001900030F4E82FF0E0EC58FF4F808101C080E0A0
:1001A0006C2F8770CF9175CF84B7877F84BFA89558
:1001B00088E181BD11BC8FE088BBC1E0C3BF80E492
:1001C00081BD789488E040DF82E083BFCFBD89BFE6
:1001D00080E090E0EBD080958093840096B39F7090
:1001E0009B3079F048F49730B1F46FEF80E090E005
:1001F000E4D0109284000FC09D3031F09E3031F079
:100200000AC0BB24B39408C08093850081E090E0CD
:10021000CDD080938300B12C86B38F708F30E1F7FF
:10022000BB2021F080E110DF53DF5CDF4EE0A42E25
:1002300099249A94C0918300D0E0D0937900C09320
:100240007800BB2049F010928200D0937900C093CF
:100250007800812C25E03EC0F09085008F2D8F71B5
:1002600086958695EA2CE81A10E08E2DEDDEF3DEF9
:100270006E2D0FDF1F5FF116C0F7E5CFE0E7F0E06E
:10028000C0E0D0E01C2F86B391918F708923D1F507
:1002900080918200823090F16BE0812FFADEBB20EA
:1002A000C1F180918500881272C00C2C01C0CC0F66
:1002B0000A94EAF7F7018081C82BC083012F1092BE
:1002C0008200212F81E0909182009A3F80F588235F
:1002D000A9F28394C0918500C81550F1E82CF12C47
:1002E000C7019695879596958795382D3370C32EBF
:1002F000CC0CAC0146585F4F7A01C0CF2C13CCCF49
:10030000109282002196C430D10509F0BBCF80E065
:10031000DACFA1DEC82FC11791F2D3E083E094DEDB
:1003200066E08C2FB6DED150C9F780E18DDEE3DECA
:1003300080E18ADECDDE80917A008234E9F480911A
:100340007B008331C9F480E17FDEC0E063E08C2F65
:1003500087709FDE85E078DECF5FC032B9F780E13D
:1003600073DE89E010DF89E06FDE75DE823011F028
:1003700086E009DF86E0F4CFCF3130F4CF5FC09361
:1003800085008BE061DE56CF9092850053CF8816B2
:1003900058F4F701808190E00C2C02C09595879568
:1003A0000A94E2F7082F0370C02FB5CFE199FECF72
:1003B0008EBBE09A99278DB30895262FE199FECF41
:1003C0001CBA8EBB2DBB0FB6F894E29AE19A0FBE11
:0803D00001960895F894FFCF97
:1003D8003B42464F59646A77070402000103050649
:0803E8001112141801FF0200BC
:00000001FF
